:100000006F00C07313000000130000001300000015
:100010001300000013000000130000001300000094
:100020001300000013000000130000001300000084
:08003000130000007300100032
:100038000000000000000000080300000C0300009E
:10004800000000009606000000000000000000000C
:10005800980600009A06000000000000000000005A
:100068009C060000000000009E0600000000000042
:10007800A0060000A2060000A4060000A6060000D4
:10008800A8060000AA060000AC060000AE060000A4
:10009800B0060000B2060000B4060000D43D00001F
:1000A800B8060000BA060000BC060000BE06000044
:1000B800C0060000C20600004E3D0000C606000053
:1000C800C8060000CA060000CC060000CE060000E4
:1000D800D0060000D2060000D4060000D6060000B4
:1000E800D8060000DA060000DC060000DE06000084
:1000F800E0060000E2060000E4060000E606000054
:10010800E8060000EA060000EC0600004A3E00008F
:10011800F0060000F206000000000000F4060000EF
:10012800F6060000F8060000FA060000FC060000CB
:10013800FE06000000070000020700000407000098
:10014800DC3E0000080700000A0700000C0700005A
:100158000E07000010070000120700001407000037
:10016800160700000000000000000000000000006A
:10017800000000000000000000000000C631000080
:100188000000000000000000000000001A07000046
:100198001C0700001E0700002007000022070000BF
:1001A8002407000026070000280700002A0700008F
:1001B8002C0700002E07000030070000320700005F
:1001C8003407000036070000380700003A0700002F
:1001D8000000000000000000000000000000000017
:1001E8000000000000000000000000000000000007
:0801F8000000000000000000FF
:10020000397101436EC619A0397141536AC866CA73
:1002100062CC5ECE19A0397101535AD056D252D455
:100220004ED64AD826DA22DC06DE330161408282CD
:1002300041114AC026C222C406C68282B24D410183
:10024000024D924C224CB24B4101024B924A224A3F
:10025000B2494101024992442244B24041018280A4
:100260003D432A876373C3029377F700BDEFADE583
:10027000937606FF3D8ABA960CC34CC30CC74CC795
:100280004107E36BD7FE11E28280B306C3408A06C2
:100290009702000096966780A6002307B700A30682
:1002A000B7002306B700A305B7002305B700A304D2
:1002B000B7002304B700A303B7002303B700A302CA
:1002C000B7002302B700A301B7002301B700A300C2
:1002D000B7002300B700828093F5F50F9396850051
:1002E000D58D93960501D58D61B79396270097021A
:1002F000000096968682E78086FA9680C1171D8F49
:100300003E96E374C3F8A5B77300203001A0EFF266
:100310003FF2EF30F00CEF307045EF3010051DBFAD
:10032000EFF21FF1EF30F01AEF30D04A25B727A2D5
:10033000A1B08280EFF25FED0111EF30207CB74B6E
:100340000000374C00009385CB2E1306CC39138563
:1003500081A1EF00103F138581A1EF007040B70924
:10036000002003A60922B7B50000938585401385B8
:1003700081A1EF00D03F1564B747000037070000A8
:10038000930504E21385019C9387A70B130707329B
:100390009D461166EF00104237B600008726063DE5
:1003A00037B600000726463D37B600008725863D54
:1003B000B747000037B600000725C63D9387A7ACB6
:1003C0003EC0B748000037480000B7470000374735
:1003D0000000B74600009388A8AB130808A6930551
:1003E00004E29387E7A71307C7A99386468A314695
:1003F0001385C187C92EB747000037470000B746AD
:100400000000374600009387272B930504E213076B
:1004100087279386E6231306C60E138501B3EF10D4
:10042000B0339386CB2E1385818D1307CC390546C7
:10043000A945E521B7B5000087A8853E37B600007D
:10044000B7B5000007A8C53E8725C63FB7B5000071
:1004500087A7053FB7B5000007A7453F37B700009E
:10046000B7B50000B7B6000007A6853F83A6463E95
:10047000D30600F05385B5200327073EB7070000D9
:10048000938C818D9387E730938801B31388C1875C
:100490001306401F93051005138501AA3EC266C0CE
:1004A0009387019CEF10A02D1385818D6929130579
:1004B000401FEF304067138501AAEF10C0359385C8
:1004C00001AA1385818D7121938B01AA83A74B0308
:1004D00037C90000374A0000887FEF30707D03A6DF
:1004E0000922AE87B7B500002A8793858541138519
:1004F00081A1EF00D0271305401FEF30C062854572
:100500004145EF20A0538567231AF100C1473ECE35
:100510004C088947371501403ECC231B0100EF20D2
:100520004012371501408565130505C0EF20801D79
:100530009305800337150140EF20C01CB7B70000BA
:1005400087A50740B7B7000007A54740138501AA54
:10055000D949EF10D01F138401AAEF30B05E704C60
:1005600093058970138581A1EF0070207C4C85650F
:1005700037150140639E3701EF20C0181C58130542
:10058000EA3CC86BEF3010671545EF30C059C1BF6A
:10059000EF208017E9B7B71702409843B706FFF876
:1005A00041111367170098C3D84337060200758FAF
:1005B000D8C39843B706F7FEFD16758F98C39843C6
:1005C000B706FCFFFD16758F98C3D843B70681FFA9
:1005D000FD16758FD8C39843B70600ECFD16758FCE
:1005E00098C33707FF0098C723A6070202C402C6B4
:1005F0009843C166558F98C3B716024005679C4261
:10060000F18F3EC6A24785073EC4B24781E7A247A5
:10061000E397E7FEB71702409C431397E700635840
:10062000070685473EC6324785476310F706B7176A
:100630000240D8438966D8C3D843558FD8C3D8431E
:10064000B706C1FFFD1613670740D8C3D843758F9F
:10065000D8C3D843C166558FD8C39843B7060001A5
:10066000558F98C3984393166700E3DD06FED84381
:10067000B7160240719BD8C3D84313672700D8C36D
:100680002147DC42B18BE39EE7FE4101828002C636
:1006900059BF01A001A001A001A001A001A001A0DB
:1006A00001A001A001A001A001A001A001A001A042
:1006B00001A001A001A001A001A001A001A001A032
:1006C00001A001A001A001A001A001A001A001A022
:1006D00001A001A001A001A001A001A001A001A012
:1006E00001A001A001A001A001A001A001A001A002
:1006F00001A001A001A001A001A001A001A001A0F2
:1007000001A001A001A001A001A001A001A001A0E1
:1007100001A001A001A001A001A001A001A001A0D1
:1007200001A001A001A001A001A001A001A001A0C1
:1007300001A001A001A001A001A001A0970100203B
:100740009381412E178100201301C18B17C5000032
:100750001305C564970500209385C58A1386018219
:1007600063FAC5008322050023A0550011059105F9
:10077000E3EAC5FE13850182938581B76377B500EF
:10078000232005001105E36DB5FEFD42739002BC08
:10079000AD4273904280B76200009382820873A0DA
:1007A0000230970200009382628993E232007390D4
:1007B0005230EFF05FDE970200009382E2B7739051
:1007C000123473002030EFF2BFA679712A84AE8410
:1007D000328981451306C00251052AF62EF432F201
:1007E00036F036CE3ACC3ECA42C846C6953C37B6FD
:1007F00000000720C63FD3F714D0D2470546D37771
:10080000F0187CC486473316260182763CCCB7B7F5
:10081000000007A08743A27512763275F246537620
:10082000061062474248B24804C010C474C038C4BD
:100830005CE0D37716D0D3F5051823280405232AC6
:1008400014055377F0185377D7185376F618D3F763
:10085000F510D39717C02310F402B7B7000087A78D
:10086000C73E1CFC3CE05377A71810E858E44561EC
:10087000D5B2EFF2FF9B7C4141112AC682973245E7
:1008800038611C7DD3F7E708530700F0D397E7A042
:1008900081CFB7B7000007A70743D397E7A093F727
:1008A000F70F81E341017DB2B7B7000007A74743C7
:1008B000D317F7A0EDB7EFF2BF973C452A84829794
:1008C0008357240258641D8DD37705D07C44D3F719
:1008D000E7101CF482978357440258641D8DD37728
:1008E00005D03C48D3F7E7105CF482978357640245
:1008F00058641D8DD37705D07C48D3F7E7101CF8DA
:100900008297B7B7000087A7C73E3C4C3CE01CFC71
:100910008297D37715D05CFC35BAEFF27F91411105
:100920003284AE841306000E814536C63AC40D3AB1
:10093000B2462247230A950000C92320D50E232260
:10094000E50E410101BAEFF2BF8E8327050E8297B3
:1009500011B283478500138717008A072304E50037
:100960003E950CC18280397122CC1304D50526CA6C
:1009700032D4AA8436D62E863410930500082285F8
:1009800006CE3AD83EDA42DC46DE36C6EF50206B61
:1009900083A7440E22858297F2406244D2442161AB
:1009A0008280EFF25F872E89B7B500001306C5017C
:1009B0009385C5432A8481447D37B7B900007D19EA
:1009C0009385C94422858504793FE37B99FEB7B5B9
:1009D000000093850545228579376FF01F87B3079F
:1009E000B50083C7C70185CFEFF29F8441112A84E8
:1009F0001385C50122956C00B284EF50C03BB2470D
:100A00000387070019CB9305C401B385B74022853E
:100A1000493F054541016FF0FF8388E0DDBF014597
:100A20008280B5476382F550EFF29F8079711C4D4B
:100A300022F626F44AF2830645011387170018CDE3
:100A40002A84AA976380D502238EB7009307F00308
:100A500063F4E700232C05003274A2741279456117
:100A60006FF04FFF238E07001C4981CBB7B5000004
:100A70001306C50193858544FD3583468400232CE8
:100A8000040023260400814713F7F70F637ED70085
:100A900013972700229718438345C401850703460F
:100AA0000700E393C5FE58C4484401E9B7B5000008
:100AB000938585472285453D45B78347D401130774
:100AC0004004638DE7246368F7001307100463870D
:100AD000E716854589A813075004E38FE7F6130747
:100AE000D004E398E7FE8347E401130730046387EB
:100AF000E7066368F70013072004638FE710894552
:100B00001DA01307B004638BE70A13073005E398B1
:100B1000E7FE0347F4016305F7029307300563E737
:100B2000E7000DC78D452285AD3D3DB793074005D4
:100B3000630BF70093076005E316F7FED94729A07A
:100B4000EF00D04F11BFD5477CCD39B7704DB7B549
:100B500000009385C54922853935FDBD8347F401E1
:100B6000130740056388E70213076005E39CE7FA73
:100B700013064506914522859D35E31F05EC5C442F
:100B8000E877EF30F012AE86B7B500002A8693857D
:100B9000854B15A013060506914522858935E31D71
:100BA00005EA5C44A877EF30B010AE86B7B5000018
:100BB0002A869385854A22857D3379BD8347F40152
:100BC000130790046388E70213070005E39CE7F42A
:100BD00013060505914522851935E31F05E65C449A
:100BE000A86BEF30F00CAE86B7B500002A8693856F
:100BF000454CD1B71306450591452285CD33E31DFC
:100C000005E45C44E86BEF30B00AAE86B7B500008F
:100C10002A869385454D45B7130605018D452285E6
:100C20007D3BE31B05E25C44886BEF307008AE86C9
:100C3000B7B500002A869385454EB5BF0347E4014A
:100C400093069004630FD702930660056306D706E8
:100C500093068004E315D7EA0347F40193062004C2
:100C6000630CD708930630046301D70AE31CF7EA44
:100C70005C59BC478297B7B500002A869385055218
:100C8000D9BD44598878EF30B002C8742AC42EC642
:100C9000EF30100288742AC02EC2EF307001224853
:100CA000B24802479247AE86B7B500002A869385C0
:100CB000C54F22854D394DB38347F40113072004F6
:100CC0006381E70213077004E39EE7E45C59C87F81
:100CD000EF30007EAE86B7B500002A869385455179
:100CE000D9BD5C59887FEF30A07CAE86B7B50000D7
:100CF0002A8693858550C1B55C59FC478297B7B564
:100D000000002A8693858552B9B55C59BC4B829701
:100D1000B7B500002A869385055335BD8347E401A6
:100D2000130760046380E70A13070005E399E7DC13
:100D30008347F401130720046382E7041307300498
:100D40006380E70613071004E39EE7DC105D91451E
:100D500022851106693111ED5C449C5FC863EF3058
:100D60002075AE86B7B500002A8693858553228507
:100D7000DD3E5C44885FEF10C024F9B9105D9145F9
:100D800022852106A93975F55C449C5F8867EF30A0
:100D90002072AE86B7B500002A8693854554C1BF40
:100DA000105D9145228531061D3961F55C449C5FDB
:100DB000C867EF30E06FAE86B7B500002A8693852E
:100DC000055575B78347F401130790046385E7144D
:100DD000636EF704130710046381E70813078004A8
:100DE000E39CE7C670089145228502CECD3E48447B
:100DF000EF00D024B7B7000087A707477266B7B7E0
:100E00000000D30500F05376F61887A74747B7B719
:100E1000000007A5474048445376F610EF00A0793C
:100E200049C95C44885FEF10C01961A01307C00472
:100E3000638BE70A13074005E390E7C2700891450A
:100E4000228502CE693E4844EF00501F4844F267B5
:100E5000D5453CF1EF009020A9A8834704028544C2
:100E60009DC329466C0813050402EF506015F24734
:100E7000AA840387070001CB9305C401B385B7405B
:100E80002285053685444844530400F00149EF00AB
:100E9000F01AD147B384F402B7B7000087A44740E3
:100EA000B7B7000007A9C746484463499900EF0057
:100EB000F018B7B500009385C555EDBE53068420E4
:100EC000D30500F053859420EF00E06E09C55C4423
:100ED000885FEF10000F13054006EF20D04405098E
:100EE00053742401D1B770089145228502CEC53CC8
:100EF0004844EF00B014B7B70000726587A7874673
:100F00004844D317F5A099E35385F720530600F022
:100F1000D305C62021B770089145228502CEC13481
:100F2000F26727A2F18071B78280EFF26FB0B286CC
:100F300003860500B7B50000938545452D346FF055
:100F40006FB1EFF2EFAE3284AE8413060008814534
:100F5000EFF00FB123209508232285086FF08FAFA3
:100F6000EFF20FAD8327050882976FF0AFAE3971AE
:100F700022CC138401823EDA1C4006CE26CA32D42B
:100F800036D63AD842DC46DE8DE32E8685473410CD
:100F900093050008AA841CC036C6EF50400A83A7F8
:100FA00044082685829723200400F2406244D244FC
:100FB0002161828053F715D0B7B5000087A7C53FE0
:100FC0007CC9B7B70000D3F7E71850C12314D50088
:100FD00038C9232E05001CE187A74756B7B7000084
:100FE0001CFD87A787565CFD8280EFF26FA43C4909
:100FF00082976FF02FA6EFF20FA24111B7B7000052
:1010000022E637B9000007A4C73FB7B7000026E4BF
:101010004AE28724494007A9C7562A84130A2502B1
:1010200085497C4852858297AA845C78631D350F78
:10103000072749408357240203550402CBF7E7787A
:10104000584C898F4C405CF86344E000B387F5400E
:1010500008545CD03385A74045224C4093D71500F7
:1010600063F3A7000D8D38601C6074605C5408D871
:10107000C3F7D7703E9548D45C50539507C01CD435
:101080003CE03385A7408D2A5C4013D7170063737B
:10109000A7001D8D1C7C0860537405D0D3F517D0B4
:1010A0005375F5103C604375857828E0352254402F
:1010B000585418608720C403B377D7027C60D37676
:1010C000171028E053F516D0C377D47853F6A71835
:1010D0007CE05390F72050E83357D702D3F617D06F
:1010E000D3F6A618D37517D0D3F6B600D30500F003
:1010F0005397B7A014EC19E35380F720B7B700005B
:1011000087A50757D376B710D3F61610D317D0A0FC
:1011100095E71C586349F006B5CBB7B7000087A721
:10112000C73F3CE439A853F78708CB779778D317A4
:10113000F9A05CF8E38707EE81443DA8232204046C
:101140002CE45C503864D3F707D083578400D3F77E
:10115000E70053F717D0B7B7000087A647577CE4DE
:10116000D3F7D7105376D610D3F7E7105376E6109F
:10117000D3F7A71810E85CE43264A26412692685EC
:1011800041016FF08F8C2324040465BF34644377DE
:10119000F768D30700F0D386F720D317F7A091EBB9
:1011A000B7B7000087A6C73F5395E6A019E1D386DD
:1011B000F72034E479B723240502232605022322ED
:1011C0000504232005042326050423240504232CD9
:1011D0000500232A05008280D377B518D39707C06E
:1011E000D3F707D04BF5B750D30700F0D397A7A09C
:1011F00099E35375B50082803365B5026343A0005F
:101200002E958280EFF2CF82B7B70000411122E61F
:1012100007A44757D3058420C137B7B7000087A775
:101220004747AD67B7B500005315F5A037B60000C6
:101230009386475805C907A78557D317E5A085C3E7
:101240008727C6575375F5105375E518D31705C092
:101250008A07B6978863326441016FE0BFFF53F598
:10126000A708F9BFB7B7000007A70758D317E5A02D
:101270009DC35375F5088727C6575375F51087A783
:1012800085575375F518D31705C08A07B697886335
:101290005315A520C9B75375A4080724C65753751D
:1012A000851007A4855753758518531705C00A077D
:1012B000B387E600E9BFEFE2BFF7B7B7000087A743
:1012C000875753F5A7083D3F6FE0DFF8D30705E0E8
:1012D000B7B635209386C6D013D717403697530735
:1012E00007F0B7B70000D377E51807A54743437564
:1012F000E578828023260506232405062326050497
:1013000023240504232E0506232C05068280EFE204
:101310003FF2011122EE5304A5205305C62026EC0E
:101320002EE62AC42EC232E0F13D0266D304A52087
:101330005305C6204937B26522459245D3F7B4100C
:10134000C37785785375B5101CE14B749450E264F3
:1013500080E1726405616FE0FFEFEFE27FED5C59C1
:101360009305C507130585079C7BCC778877B7C79E
:101370000000D3F5F50887A78752832785FB48E54A
:10138000D3F5F5100CE9D06759376FE0BFECEFE209
:101390003FEA011126ECD304A5205305C62022EE16
:1013A0002EE62AC42EC232E0B13D02665304A520C7
:1013B0005305C6200937B26522459245D377B4104C
:1013C000C77795785375B5101CE143749450E26467
:1013D00080E1726405616FE0FFE7D30700F0B7C7F3
:1013E000000007A787525388B7A0D386A7A053F75A
:1013F000E510B7B7000037B70000630A080A8DCEC2
:10140000D316E5A0639206125375E50887A7C73F78
:10141000B7C6000007A7865387260757D3F7A70844
:10142000CBF7E578D3F7D71053F5A7001CE188E197
:1014300043F5E55008E299A0B7C6000087A7C65358
:10144000D3F7F510D316F5A0E5C25315A520B7C6FE
:10145000000087A7C73F5375E50807A7865387266F
:101460000757CBF7E578D3F7A708D3F7D710C3F51D
:10147000E5789CE10CE2D3F5A5000CE11C61530773
:1014800000F05307F7A075CF87A6C73FD387D7A033
:10149000EDCB9C61D307F7A0EDC7D387D7A0F5C3E9
:1014A0001C62D307F7A0F1CF5385D7A08280B1C2C9
:1014B000B7C6000087A7C653D3F7F510D316F5A01B
:1014C000C9EAB7C600005375E50087A7C73F07A75D
:1014D000065487260757CBF7E578D3F7A708D3F745
:1014E000D71053F5A7001CE1C3F5E55008E28CE1E5
:1014F00071B7D316E5A0B1CE5375A70887A7C73F2C
:10150000B7C6000007A7065487260757D3F7A708D2
:10151000CBF7E578D3F7D710C3F5E5781CE253F5A0
:10152000A5008CE108E199BFD377E5005375A708C2
:1015300007A7C73F872607575377F7085377A708AA
:101540005377D7105375A70098E108E15375F5005C
:10155000D5B5D316A52087A7C73F5375E508D3F6A1
:10156000E60807270757D3F7D708D3F7A708D3F715
:10157000E7101CE2D3F7D70053F5A7001CE188E180
:10158000F5BD01458280EFE2BFCA41112A846C009B
:101590002800F53B085CB26522651306C50093057B
:1015A000850011051D3D11E5F5477CCC41016FE03B
:1015B0007FCA0545E5BFD30700F02A87D317F5A0FA
:1015C000B1CFB7C7000087A70753D317F5A00145D0
:1015D000A9EFEFE2FFC50111B7C7000022EE07A493
:1015E000475326ECD384B520537485105385B5201A
:1015F0004AEA3AC432E6C1315379A41053859420A3
:101600001131D375A4103266530529212245A53F17
:101610007264E264526905616FE0DFC3B7B700002E
:1016200087A7C73FD397A7A05DB78280EFE25FC0CF
:101630005C59011126EC9C7FB7C7000007A74754EF
:10164000D3F7F700B7B7000087A4C73F22EE32E612
:10165000D3F7E7182AC4D3F7F418D3F5B71053F427
:10166000A71053F5B5102EE2437584508531B7C7E6
:10167000000087A787549265224553F5A718326664
:10168000D31795A089C75374A410D3F5A51053059B
:101690008420D53D7264E26405616FE0BFBBEFE278
:1016A0003FB95C59797122F6807FB7C7000087A7E0
:1016B000475453748400B7B7000052EE07AAC73FDF
:1016C0004AF25374F418072985074EF03C615379A8
:1016D0002509687D26F42465D3F9A5086C65C3F453
:1016E000274936E62AC4C3F7375953748A18D3F406
:1016F000841053F487105375841043F59450F936D1
:10170000B7C7000087A787542245B26653F5A718CC
:1017100058592C657865D31745A1A9C7B7C70000EC
:1017200087A7C752D3F4A4105374A410D3F5F510AF
:10173000D377F7102CE57CE57C7D387DD3058420BC
:10174000D377F410538594205386D620C3779778A7
:101750005CFB153D3274A27412798279726A45611C
:101760006FE05FAF68615C63537925115375351184
:101770004379F958C3F7A770272425056DBFEFE219
:101780003FAB39713284AE841306C008814522FE16
:1017900026FC530407F0D38406F02AF62EF432F226
:1017A00036F03AEE3EEC42EA46E83EC642C446C255
:1017B000EFE01FABB2477267E2671CD9C64718ED6E
:1017C0005CED5CDDD647537714D032752326F508DF
:1017D000B7C7000087A7475AA2751276D3F7E71854
:1017E00082765268C268224892482300950040F5EC
:1017F00008E572744CE510E954E927200503272217
:10180000150304F5232A0503232C15035CE1E27478
:1018100021616FE03FA4EFE2BFA18327C5082A84BE
:1018200082970858EFF06FFC4858EFF08F84085CFF
:10183000EF00007785477CCC6FE0DFA1EFE25F9F90
:101840002A84EFF03FAB530600F0085CD305C620B6
:101850005305C620EF00C0716FE0DF9F6CCD828022
:10186000EFE21F9D58597C4D2A8454635547638F7E
:10187000E7065947638FE70618587874D546506BCA
:101880003C745376C70863F8F60038682C6C4377CD
:10189000C758D3F7E70048604C74D375B510D3969A
:1018A000F5A0C9E2D395B520D396B7A0A5EED5464D
:1018B00063EFF604D385F720232C0404D3F5A51891
:1018C000B7C7000087A7C77C5067530500F0D3F661
:1018D000F6101C6B2285C3F6F6602720B408C133CE
:1018E00001C5085CEF00E06D6FE0DF963C713CF5F0
:1018F00061B770757C714C69D3F7C70853F7D71877
:10190000D3F7C7007CF55377B71038F5B5B70C633C
:1019100078685377B7102C6C4377C758D385F72076
:1019200038EC69BFD546E3F9F6F8B7C700003C6C60
:1019300007A7C752D3F7E7103CEC49B7EFE25F8F38
:101940002A847C4C1547485D9D17636DF704316709
:101950008A071307C754BA979C43828737C600008B
:101960001306C670A285EFF04FDC2285C13D6FE003
:101970007F8E37C6000013060674EDB737C6000029
:1019800013064675C5B737C6000013068676D9BF5D
:1019900037C6000013068678F1B737C60000130675
:1019A000467AC9B737C600001306C67B65BF1469FF
:1019B00078793C79232605045377D710D3F7D710CD
:1019C0002324050438E17CE18280EFE2DF84138781
:1019D00081821C43011122EE85071CC3784D5459A6
:1019E0003D46791703A906006363E61031660A07CE
:1019F0001306465632971843938481822A840287BD
:101A000095477CCCEDA0530600F0085DD305C620B9
:101A10005305C620B12B938701B523A4070023A249
:101A2000070023A0070023A004009947D9BFBC46A4
:101A3000138901B58297832709003E955C582320BE
:101A4000A900FC478297832749003E955C582322D2
:101A5000A900BC4B8297032789009307F0032A97BC
:101A600088402324E90063F4A7080326090083269D
:101A700049003357A7024C5803A8850083D70502B5
:101A8000D37718D03356A6022393E502B3D6A60225
:101A90002391C50241657D15698E698F2392D50218
:101AA000B7C5000007A7855AE98ED3F7E71053980A
:101AB00017C0420813580801B38807416340160352
:101AC000B385070163CCC50063CA160163C8D5009E
:101AD0006346170163C4E5009D4725B7ED45485CA3
:101AE0006CCCB7C500009385055BEFE0DFE772645F
:101AF00005616FE08FF523A401B623A00400A14780
:101B000009B79876C8621C655375A500D3F7E70836
:101B1000938781B69863938981B64375F570D3072F
:101B200000F088E3D317F5A095C3B7C7000087A7D7
:101B3000C75AD317F5A0530600F0D305C62091CF9E
:101B40005305C620085C2D21E54765BDB7B70000E9
:101B500087A7073FD397A7A0F9BF2285EFF01FAD56
:101B600019C1085CB9298D473309F9029C40E3E0AB
:101B700027F9186487A70900B7C70000530600F0CB
:101B8000D3F7E71807A74754D305C6205305C62047
:101B9000085CA5477CCCD3F7F700D3F7E7183CF8EF
:101BA000C12EB1B75C65530600F05395F7209387BB
:101BB00081B6D305C62088E3DCE39387C1B523A0B3
:101BC000040023A2070023A00700EFF03FA619C1DD
:101BD000085CC52EA94735B513C7F7FF058B1386DB
:101BE000C1B50A0732971C639876530600F0858BBF
:101BF000D3F7E7008A07D305C6209389C1B51CE354
:101C0000138781B6BA978863EFF05FA219C1085CA9
:101C10004D2E98409377E9FFE36BF7EC87A7090017
:101C20005C5807A7490013591900D4635377F70884
:101C3000D37709D0B7C700002285D3F7D7105377E1
:101C4000F7185C64D3F7E71807A74754D3F7F700F2
:101C5000D3F7E7187CF8A13B530600F0085CD305E6
:101C6000C6205305C6202926AD4761BB530600F0A8
:101C7000B7B7000007A5C73FD305C620EFF01F9BED
:101C800019C1085C3D2E23A00400B1479DBB53063B
:101C900000F0B7B7000007A5C73FD305C620EFF097
:101CA000FF9819C1085C312E1C5803D727022390D6
:101CB000E702984093073006E3FBE7E2530600F0A3
:101CC000085CD305C6205305C6205D24B54715BB67
:101CD00023A2018223A00400B94725B3B7B70000AF
:101CE00087A7418207A7475737B9000093844182ED
:101CF000D307F7A0C1CB1859545763D606005C4FE1
:101D000093C717005CCF5C43D3F706D053F417D0CA
:101D10005374F418D30700F0D317F4A099C35314E5
:101D2000842053058420035787003AC4EF2040786D
:101D30002A862247485CAE86B7C500009385456079
:101D4000EFE07FC20858EFF00FC7530600F0085CC1
:101D5000D305C6205305C620212C1C5883D78700E5
:101D6000D3F717D05374F408D30700F0D317F4A0B7
:101D7000A1C3B7C7000087A70753D317F4A095CF17
:101D8000F1477CCC5C589C60D30500F0D063B7B7BA
:101D9000000007A747470725C93F22854376E67815
:101DA00090E0EFF0BF88E30405D4085C192C81B300
:101DB0008727C93FD39787A0D9B7C547D9B70306A7
:101DC0000500485DB7C5000093854562EFE0BFB9E7
:101DD0004860EF20E06D2A86485CAE86B7C50000FB
:101DE00093854564EFE03FB85058485CB7C50000A4
:101DF000835706020357660283564602035626029D
:101E000093858565EFE03FB60864EF20606A287827
:101E10002AC42EC6EF20C0692247B2472A86485CF2
:101E2000AE86B7C5000093858569EFE0DFB34864EF
:101E3000EF20006868782AC42EC6EF20606722472A
:101E4000B2472A86485CAE86B7C500009385456BCD
:101E5000EFE07FB11C58485CB7C5000003D607020D
:101E60009385056DEFE03FB06860EF206064286007
:101E70002AC42EC6EF20C063B2472A862247485C98
:101E8000AE86B7C500009385456EEFE0DFAD1C5808
:101E9000485CB7C50000D04F93854570EFE0BFACFC
:101EA000B9B1EFE2EFB82A844859EFE0DFA022850C
:101EB000EFF0AFCA0858EFF00F9419E1F9477CCC66
:101EC0007C4C0D479386C7FE6367D7002285EFF0F1
:101ED0003F996FE02FB81387E7FFB94663E6E60046
:101EE0002285EFF09FAEF5B7138787FE9D4663E628
:101EF000E6002285EFF09FA4E9BF05476395E70060
:101F000089477CCCF9B745476394E700D947D5BFEB
:101F10004D476393E7021C58530500F02285D467B0
:101F2000B7B7000087A507575386D620EFF02FF7E5
:101F30004DD1085C792071BF4947E38CE7F8D1DBCC
:101F4000E947C1B7EFE2CFAEA93F6FE0AFB028E9F4
:101F50006CE9232C050482800CC123220500232474
:101F600005002326050010C954C918CD5CCD828018
:101F7000EFE20FAC5C49411148E10CE550E52A84E1
:101F800032E42EE68297B2651C4C5385B5208297C9
:101F900022665C4C5305C620829741016FE08FABEF
:101FA000EFE20FA91C4941112AC68297530600F09F
:101FB0003245D305C6205305C6205D3F41016FE081
:101FC0006FA9EFE2EFA65C4948612A8482971C4C16
:101FD000086482975C4C486482976FE0AFA7EFE299
:101FE0002FA5B727014093870740631EF50085455D
:101FF00013050020EF005028814513050020EF0055
:10200000B0276FE02FA5B737014093870780E31A09
:10201000F5FE854513050040EF00102681451305A8
:102020000040F1BF5C413707F1E01307F7EF944D33
:102030007D8F9C41D58FD44DD58FD441A206D58FAD
:10204000D98F5CC11C4537F7F1FF1307D77FD44503
:102050007D8F9C49D58F94458606D58FD98F1CC519
:102060005C55370710FF7D177D8F83C74501FD172E
:1020700093F7F70FD207D98F5CD582801C4589C5AD
:1020800093E717001CC58280F99BEDBF1C4589C5ED
:1020900093E707101CC5828093F7F7EFE5BF5C411B
:1020A00093F5F50F01C6DD8D4CC1828093C5F5FF18
:1020B000FD8DDDBF1C4593E787001CC58280084568
:1020C0000D81058982801C4593E747001CC58280ED
:1020D00008450981058982801C4591C53707500054
:1020E000D98F1CC582803707B0FF7D17F98FD5BF08
:1020F000A54763F7B7048D47138765FF3307F702DA
:102100000328C5009D47B397E70093C7F7FFB3F7D0
:102110000701B396E600DD8E54C5994763E3C70413
:1021200095477D163306F6025859FD47B397C70009
:1021300093C7F7FFF98F3396C5005D8E50D9828023
:102140000D473387E502032805019D47B397E70054
:1021500093C7F7FFB3F70701B396E600DD8E14C906
:102160006DBFB14763E2C702954765163306F602B5
:102170001859FD47B397C70093C7F7FFF98F3396F8
:10218000C5005D8E10D9828095474D163306F60244
:102190005855FD47B397C70093C7F7FFF98FB3951D
:1021A000C500DD8D4CD582801C4565777D17F98F84
:1021B000DD8D0CC582801C4589C52167D98F1CC562
:1021C000828061777D17F98FDDBFA54763FBB70478
:1021D0008D47138765FF3307F7020328C5009D4726
:1021E000B397E70093C7F7FFB3F70701B396E6008D
:1021F000DD8E54C5145D0906154793D746018D8BB6
:10220000B307F64093F7F70FB387E7027D4733171D
:10221000F7001347F7FF758FB395F500D98D0CDDE7
:1022200082800D473387E502032805019D47B39758
:10223000E70093C7F7FFB3F70701B396E600DD8E1B
:1022400014C94DBF1C5D3707D0FF7D17FD15F98FF1
:10225000D205DD8D0CDD8280411102C62AC6B2474F
:1022600093878702BE952EC6B24788434101420537
:10227000418182805841144193D78500F58F99C7D9
:1022800013F5F50F798D3335A000828001458280EA
:10229000A18193C5F5FF0CC182805C4191C53707D0
:1022A0000004D98F5CC18280370700FC7D17F98F4D
:1022B000D5BFEFD2FFF701112A8423040100A54402
:1022C0008347810063FFF40423040100A5462146EF
:1022D0008347810063F5F6082315010023040100FC
:1022E00095468347810063F3F6100357A100835797
:1022F000A10099460D46B3F7D70205651305058081
:10230000B3D7C7023357D702BA97C207C183231581
:10231000F1008357A10005611D8D420541856FD0F5
:102320007FF31C4493E787001CC42285493B75FD5D
:102330001C4493E747001CC42285593B75FD784433
:102340008347810014108607B6972396E7FE8347DC
:102350008100850793F7F70F2304F10095B7A304D5
:10236000010083479100637AF60083478100850767
:1023700093F7F70F2304F100A1BF034791008347B0
:1023800091000C100607850786072E97AE97035716
:10239000C7FE83D7C7FE63F3E70483479100860730
:1023A000AE9783D7C7FE2315F100834791000347FB
:1023B000910085078607AE9783D5C7FE9317170050
:1023C0001810BA972396B7FE834791000357A100D0
:1023D0000C1085078607AE972396E7FE834791008A
:1023E000850793F7F70FA304F100A5BF834781008A
:1023F00010100357A10089078607B29783D7C7FE3D
:10240000BA97C207C1832315F1008347810085076E
:1024100093F7F70F2304F100E9B51C4141677917E1
:10242000F98F1CC123200500232205002324050069
:10243000B707024023260500138787006317E500CE
:10244000D8431367F700D8C382801387C701631688
:10245000E500D8431367070FFDB713870703631819
:10246000E500D8438566938606F0558FE9BF13874C
:1024700047046315E500D843BD66C5BF13878705CC
:102480006316E500D843B7060F00C5B71387C70624
:102490006316E500D843B706F000C1BF13870708ED
:1024A0006316E500D843B706000FC1B7138787400E
:1024B0006319E50003A747401367F70023A2E7402D
:1024C00082801387C7416317E50003A7474013675E
:1024D000070FEDB793870743631BF500B70702406B
:1024E00003A747408566938606F0558FC1BFB7079F
:1024F0000240138747446316E50003A74740BD66C3
:10250000EDB7138787456317E50003A74740B70674
:102510000F00E1BF1387C7466317E50003A74740D5
:10252000B706F000D9B7138707486317E50003A77C
:102530004740B706000F55BF138707496319E500E9
:1025400003A7474D1367F70023AAE74C8280138740
:10255000074A6317E50003A7474D1367070FEDB759
:102560001387074B6319E50003A7474D85669386DC
:1025700006F0558FD1BF1387074CE319E5FC03A77D
:10258000474DBD66FDB71C4161773D0794517D8F76
:102590009C45D58F9449D58FD449D58F944DD58FEF
:1025A000D44DD58FD451D58F9455D58FD98F1CC18B
:1025B000DC455CC19C411CC5DC415CC582801C4182
:1025C00001C6DD8D0CC1828093C5F5FFFD8DDDBF99
:1025D0009317350063DA0700B707024083A7074067
:1025E0007D8D3335A00082809317250063D70700C7
:1025F000B707024083A7074DE5B7B70702409C43E2
:10260000C5B79317350063D70700B707024023A269
:10261000A74082809317250063D70700B7070240C1
:1026200023AAA74C8280B7070240C8C38280EFD29A
:102630003FC0793F6FD01FC2EFD29FBFD9376FD055
:102640007FC19C4513F7070113F8F70001C7D84174
:102650003368E80083D5050013F7F50F39C3184137
:102660008146854E3D4F930F800293028004214E98
:102670003396DE00B3F8C500631116039398260065
:1026800033131F011343F3FF3377E300B31818012B
:1026900033E7E800639FF70550C98506E39AC6FD56
:1026A00018C11307F00F6375B70454412146854ED6
:1026B0003D4F930F800293028004414EB398CE00A9
:1026C00033F715016392E80213172600011733133D
:1026D000EF001343F3FFB376D3003317E800D98E2E
:1026E000639DF701232A15010506E319C6FD54C1B0
:1026F0008280E39457FA10C94DB7E39757FE232819
:102700001501DDB70CC982804CC98280B707014032
:1027100063570504DC4F135705019376F700131632
:1027200005013707300041823378E500635C05041A
:102730006319E802138706018D46B396E60093C637
:10274000F6FFF58F89C91357550112073317E600B5
:10275000D98F63570504370701405CCF8280DC4383
:102760005DBF1317B500635607000D47B316D700BA
:10277000F9B71357550112073317E6001347F7FF50
:10278000F98FC9B76312E802370801408326480071
:10279000370700F17D17F98F758F2322E800C5F503
:1027A000370701405CC382801317B500635C0700E4
:1027B0000D473317D7001347F7FF7D8FB707000F7B
:1027C000D98FF1BF1357550112073317E600E5B74C
:1027D00023A6A18282809387C18294430347050088
:1027E00089E683472500920731A894430546639103
:1027F000C604834725000346150092076314D600DC
:1028000093E707F8B7E600E093F7F70FBA9623804F
:10281000F6408546935757003397E6005441ADC6BE
:10282000938707048A07B7E600E0B69798C38280CB
:102830008C4389466393D502834615008347250060
:102840006365D6008A06B69779BF9386E6038A0643
:10285000B69793F7F70F920765B790438D46631EBF
:10286000D60083461500834725006364D60086069C
:10287000D9BF9386C6078606E1BF94439147E39A82
:10288000F6F88347150085B79387070661BFB7162B
:102890000240DC4251777D17F98F5D8DC8C282807E
:1028A000371702405C439146B18B6385D700A14640
:1028B0006386D706B7177A00938707201CC137169F
:1028C00002405C4237070020130707009183BD8B4D
:1028D000BA9783C607001C41B3D7D7005CC15442E6
:1028E000A1829D8ABA9683C60600B3D6D70014C5C6
:1028F0005442AD829D8A369703470700B3D7E7005D
:102900005CC55842398393763700138781803697A8
:1029100003470700B3D7E7021CC982805C435843D2
:10292000C166C983758FB7F6FF1F83A6C670BD8BBE
:1029300089071396160163480600C546014663924F
:10294000D702C94739A88946638FD702BD46638E2F
:10295000D702C146638ED702C54601466393D700AE
:10296000C1471DEF3747024003270780418B05C74A
:1029700037177A0013070720B307F7021CC121D2CB
:102980001C41858325BF01466DBF0546B547D1BFB4
:102990000146BD47F9B737173D0013070790E9BF58
:1029A000B7150240D8559316F700D85563DF0604D3
:1029B00011833D8B9306170037177A001307072002
:1029C0003357D70218C1D455A182BD8A8DE29546EE
:1029D0003307D702058318C13717024058571441EF
:1029E0003D8B050733D7E60218C1184171B78545FD
:1029F0006394B600E546E9BFBD456396B600D1468F
:102A00003387E602C9BF8906E5BF3D8B93061700F1
:102A100037177A00130707203357D702F1B799C544
:102A2000371702405C4B5D8D48CB8280B717024060
:102A3000D84B1345F5FF798DC8CB828099C53717E0
:102A400002401C4F5D8D08CF8280B7170240984F1F
:102A50001345F5FF798D88CF828099C537170240DD
:102A60005C4F5D8D48CF8280B7170240D84F134529
:102A7000F5FF798DC8CF828099C5371702405C4732
:102A80005D8D48C78280B7170240D8471345F5FFD0
:102A9000798DC8C78280035705008D679387070427
:102AA00083D625007D8F83D70500D58F83D645003B
:102AB000D58F83D66500D58F83D68500D58F83D6F5
:102AC000A500D58F83D6C500D58F83D6E500D58FD9
:102AD000D98F2310F5000357C501FD779387F77F42
:102AE000F98F231EF50083D705012318F500828096
:102AF0008357050091C593E707042310F5008280F2
:102B0000C207C18393F7F7FBC207C183FDB7231642
:102B1000B50082800355C5008280035585006D8D08
:102B20003335A00082808357050037370140930674
:102B300007C0C207C1836300D504B7060040630C19
:102B4000D502938606406308D502B7160040138667
:102B500006806302C502938606C0630ED500130784
:102B60000740630AE50037570140930607C0630436
:102B7000D5006317E50003D7250093F7F7F8D98F41
:102B800037170040630DE500130707406309E500B0
:102B900093F7F7CF03D76500C207C183D98F2310FE
:102BA000F50083D745002316F50283D705002314CB
:102BB000F502B7370140138707C0630EE50093871E
:102BC0000740630AF500B7570140138707C0630445
:102BD000E5006316F50083C785002318F5028547D5
:102BE000231AF50082808357050203D6050003D817
:102BF0002500C207C183F99BC207C1832310F502D8
:102C0000835705028356450003578501C207C183D8
:102C1000420741831377C7F8518F03D68500F59B90
:102C2000C20633660601D18F37360140130806C04D
:102C3000C182630E050113060640630AC5003756BC
:102C40000140130806C0630405016313C50203D6DF
:102C5000A500DD9B03D8E500D18F03D64500ED9B91
:102C600093F6F6CFD18F03D6C50033660601D18E19
:102C70002312D500231CE50003D76500231AE502C3
:102C80002310F50282808357050265771307F7CF7B
:102C9000C207C183BD9BC207C1832310F5028357BE
:102CA00005028356450003D88500C2071396060126
:102CB00083568501C18393F7F7FD758F83D6050091
:102CC0004182A206558F83D6250042074183B3E691
:102CD00006019206D58FB7360140C207138806C099
:102CE000C183630E050193860640630AD500B7567B
:102CF0000140138806C0630405016311D50483D61F
:102D0000A50093F7F7F703D8C5009206D58F83D6B1
:102D10004500C207C183920693F7F7FBD58FFD7676
:102D20009386F63FF18E03D6E500C207C183336672
:102D300006010A06D18E1396060141822312C500B0
:102D4000231CE50003D76500231CE5022310F502D0
:102D500082808357050203D88500C207C18393F799
:102D6000F7EFC207C1832310F5028357050283568C
:102D700045000357C501C20713960601420783D6D3
:102D8000050041831377C7F8558F83D62500C1838B
:102D900093F7F7DFB3E60601A206D58FB7360140F9
:102DA000C207138806C04182C183630E0501938662
:102DB0000640630AD500B7560140138806C0630475
:102DC00005016312D504FD769386F67FF58F83D6D1
:102DD000A50003D8C500A206D58F83D64500C2073B
:102DE000C183A20693F7F7BFD58FF576FD16F18E56
:102DF00003D6E500C207C183336606011206D18EF1
:102E00001396060141822312C500231EE50003D755
:102E10006500231EE5022310F50282800357050298
:102E2000FD77FD17F98F2310F5020358050283562D
:102E300045008357C50165771396060183D60500C3
:102E40001307F7CF7D8FF977A206FD17558FB3F7DC
:102E5000070183D6250003D8850042074182B3E6E7
:102E60000601B206D58FB7360140C207138806C0E7
:102E70004183C183630E050193860640630AD50032
:102E8000B7560140138806C063040501631CD500D2
:102E9000F176FD16F18E03D6C5001A06D18E139673
:102EA000060141822312C500231EE50003D76500F9
:102EB0002310E5042310F502828003D7250083D771
:102EC0000500D98F03D74500D98F03D76500D98F67
:102ED00003D78500D98F03D7A500D98F03D7C500A5
:102EE000D98F2312F50482808357050091C593E79B
:102EF00017002310F5008280C207C183F99BC20727
:102F0000C183C5BF8357450491C52167D98F23125B
:102F1000F5048280C607C583DDBF8357050091C5D0
:102F200093E707082310F5008280C207C18393F757
:102F3000F7F7C207C183FDB783578501C207C18375
:102F4000DD9BDD8D231CB500828003578501FD7755
:102F50009387F77FF98FA205CD8FC207C183231C0A
:102F6000F50082808357C501C207C183DD9BDD8DDB
:102F7000231EB50082800357C501FD779387F77F35
:102F8000F98FA205CD8FC207C183231EF500828071
:102F9000231AB5028280231CB5028280231EB5024B
:102FA0008280EFD2EFA883560501F577FD17F58FE4
:102FB00083D6650003D7C5007971D58F2318F50036
:102FC0008356C500FD779387379FF58F83D64500DD
:102FD0002A842EC6D58F83D68500D58F83D6A500AB
:102FE000D58F2316F50083574501C207C18393F798
:102FF000F7CFD98F231AF5006808EFF07F8AB7471B
:10300000014093870780B245631DF404A25783569D
:10301000C4006547B387E702C206C186984163D4FE
:10302000060406070356C4004206B3D7E702130797
:1030300040064186B3D6E702B3F7E702920663562D
:1030400006028E0793872703B3D7E70213F77700AB
:10305000B367D700C207C1832314F40045616FD062
:103060006F9F92576DB70A0775BF92079387270323
:10307000B3D7E702BD8BD58FF1BF81C98357C50098
:103080000967D98F2316F50082800357C500F977A9
:10309000FD17F98FC5BF13F7F50F85471583B39556
:1030A000B7006319F7009307C500984301CED98D87
:1030B0008CC38280894693074501E318D7FE9307A6
:1030C0000501E5B793C5F5FFF98DDDB793F5F51F5C
:1030D0002312B5008280035545001375F51F8280C9
:1030E000035505006D8D3335A000828013F7F50F71
:1030F00085461583B397B6006313D7020357C500FF
:10310000F98F0357050001454207418381CB0545EF
:10311000A181B315B5006D8F3335E00082808946FB
:103120006315D70003570501E1BF03574501C9BF28
:10313000A1818547B397B70093C7F7FFC207C18343
:103140002310F5008280B7070050239AA70203C717
:1031500067031377C70F238BE7028280B7070050FE
:10316000239CA70203C7A7031377C70F238DE7028A
:103170008280EFD2EF8B814713F7F70F6365A700CB
:10318000D9376FD02F8D03A7C1843E9783460700A0
:10319000850793C6F6FF2300D704F9BFEFD24F8906
:1031A000814713F7F70F6365A7004D3F6FD08F8AF4
:1031B00003A701853E9783460700850793C6F6FF60
:1031C0002300D704F9BFB707005003C76700137780
:1031D000F70F93762700638E06645971A2D6A6D4A2
:1031E000CAD2CED0D2CED6CC82E686E48AE28EE0B7
:1031F00012FE16FC1AFA1EF82AF62EF432F236F0F7
:103200003AEE3EEC42EA46E872E676E47AE27EE0A6
:1032100003C777009306000213770703630AD74EAC
:10322000130600036302C704631E072203C7770067
:1032300085461377F703630BD75C6304075C894605
:103240006312D72203C7770013770704630C0720A4
:1032500003C7B70313474700A38DE70203D58700D1
:103260001375F50F253FFDAA19472389E70211477A
:10327000A389E70203A98184834779000347690092
:10328000A207D98F1387E1832310F70003471900A2
:103290009387C1832380E700034A09001384E183F5
:1032A00013770A06630C070E03C70700137707029C
:1032B00019CF83C707001307100293F7F70F638A2C
:1032C000E700130720026384E7006396D718814460
:1032D00099A09387C18023A2F184835704001D47DE
:1032E00093894184A1446366F7008354040093F4F6
:1032F000F40F26869385C1804A85EF1040318357AD
:103300000400858FC207C1832310F40083A709003E
:10331000A69723A0F90083570400C204C18063F478
:10332000F400231094009387018403D707009D467F
:10333000A14463E6E60083D4070093F4F40F1389F5
:103340004184832909002686CE8513854183CE9446
:10335000EF10E02B23209900620A135A8A4181471B
:1033600063520A0203570400A14763E6E70083574C
:10337000040093F7F70F035704001D8F42074183A2
:103380002310E400C20737070050C1832318F70257
:1033900091472309F702A309F702E9A083C70700B1
:1033A0002D4793F7F70F6368F70A31678A0713070A
:1033B000077DBA979C4382878347390003472900DA
:1033C000A207D98F13D787008D4693844184630564
:1033D000D70E63ECE6008547630AF7028947630569
:1033E000F70C9309F00F814705A89D476303F71277
:1033F000930720026308F7109947E314F7FEB567B7
:103400009387078A9CC08149A94739A0B5679387EC
:1034100047849CC08149C94703570400C207C18340
:1034200063F4E7002310F400835704001D47A14A0A
:103430006366F700835A040093FAFA0F8C405686AD
:103440004A85EF10C01C9C40BE9A23A054019307EC
:10345000F00FE393F9F0B70700501D472389E70207
:10346000A389E702B707005009472383E7003654D2
:10347000A65416598659764AE64A3660A660166101
:1034800086617272E2725273C2733275A2751276DD
:1034900082767267E2675268C268326EA26E126FFD
:1034A000826F656173002030B567938707809CC089
:1034B0008149930730048DB793F7F70F85466385ED
:1034C000D70289CF89466388D702E39CE7F0B567C6
:1034D000938787889CC08149D9473DBF9387C18125
:1034E0009CC0814991470DBFB567938787859CC074
:1034F0008149B94715B7B567938787869CC08149CD
:10350000B14719BFB567938747879CC08149D147A9
:1035100021B783C7318193F7F70FE39407ECB7091D
:10352000002093890901B565130610049385258051
:1035300013852900EF10A00D23A0340195BF834708
:1035400029002310F40009BD83C701832300F9007B
:10355000035704008547E3E6E7FEFDBB0347290068
:103560002388E182D5BB1377FA018947E315F7EE8B
:10357000834749006383E704636EF7000547E39CD4
:10358000E7EC370700508347770393F7870FA30BC8
:10359000F702D9B313071008638AE702130720085C
:1035A000E39BE7EA370700508347A70393F7870FAA
:1035B00093E72700230DF70245B3370700508347F1
:1035C000B70393F7870FA30DF70279B337070050BE
:1035D0008347670393F7870F93E72700230BF702CF
:1035E000A5BB1387418383470700FD8B89EB835776
:1035F00027000547E391E7E62381F184B1BB8946C3
:10360000E39BD7E483562700E39706E4034747008C
:103610006305F70463E0E7028547E31EF7E2370737
:1036200000508347770393F7C70FA30BF70293E785
:103630003700B1BF93071008630CF7029307200807
:10364000E31BF7E0370700508347A70393F7C70F43
:10365000230DF70293E73700B1BF370700508347C8
:10366000B70393F7C70FA30DF70293E73700A1BF86
:10367000370700508347670393F7C70F230BF70201
:1036800093E73700A1BF23000900D9B5238A01823F
:103690009387018483D607000547E37FD7CA239029
:1036A000E7005DB9138741832310070003574700E4
:1036B00093061008938741836313D702370700509E
:1036C000034767030D8B8D466315D700054723809D
:1036D000E7009387018483D6070009477DBF8546AD
:1036E0006317D7003707005003477703E1BF9306FE
:1036F00020086317D700370700500347A703D9B73F
:103700008946E318D7FC370700500347B7035DBF6E
:1037100083C677001306100293F6F6036387C60A82
:10372000130620026380C60CE39EE6D203C7C18362
:1037300095461377F70F6306D70699466314D708A3
:103740009387E18383D707001D479384E183214456
:103750006366F70003D404001374F40F13894184E3
:1037600003A58184832509002286EF00506A83D750
:103770000400131704014183998FC207C18323906A
:10378000F400832709003E9423208900B7070050E6
:103790002398E70203C72703134747002389E7025B
:1037A000D1B103C7370083D6E18313770708558F5C
:1037B0001377F70FA381E70009472389E702A3895D
:1037C00007024DB123980702C5BF03C767031377EC
:1037D000C70F238BE70203C7670313474700238BF9
:1037E000E70249B103C7A70313474700238DE70248
:1037F00003C7A7031377C70F13672700238DE702BB
:1038000095B103C7C18383D78700A9B903C77700E0
:1038100013770704E30807C403C777031347470078
:10382000A38BE70203D587001375F50FEFF07F94A4
:1038300015B99376170085CAA3810700A3890702EB
:10384000A38B0702A38D070209472389E702238B75
:10385000E702238DE70203C767001367170023837E
:10386000E7007300203093764700F5DA03C757006E
:103870001147F5B783D74185AA97C207C18313962D
:1038800007014186634B060085661387F6FF63597F
:10389000D6006315E500AA8711A081473E85828086
:1038A000BA87EDBFEFC2DF98011113060002814510
:1038B0000A85EFC0FF9A854513050020EFF00F98A9
:1038C000854513050040EFF06F97216537240140CF
:1038D000EFE0FFFB13050440EFE06FF037350140E8
:1038E00013050580EFE0AFEFC16737070E003EC05C
:1038F0008A858547130504403EC23AC6230AF10073
:1039000002C402C802CC02CEEFE0CFF185460546E4
:103910008D4513050440EFE0AFFD8D4513050440D0
:10392000EFE05F9285460546814513050440EFE0D0
:10393000DF8985460946854513050440EFE0FF8889
:1039400085460D46894513050440EFE01F889965BB
:1039500013050440EFE05F85854513050440EFE063
:103960009F8505469305004813050440EFE02FF3BB
:10397000854513050440EFE06FF1854513050440CC
:10398000EFE0CFEF814513050440EFE01F911305F1
:103990000440EFE02FF2930404402685EFE02FF27D
:1039A0006DFD1305044037240140EFE0CFF193048F
:1039B00004402685EFE0CFF16DFD13050440EFE0F4
:1039C0005F8F239AA184854513050440EFE0FF8CA7
:1039D000373401408A8513050480EFE0AFE4854663
:1039E0000546914513050480EFE08FF085451305EA
:1039F0000480EFE0AFE8814513050480EFE0FF8924
:103A000013050480EFE00FEB930404802685EFE0BC
:103A10000FEB6DFD1305048037340140EFE0AFEA92
:103A2000930404802685EFE0AFEA6DFD1305048062
:103A3000EFE03F88239BA184854513050480EFE0D8
:103A4000DF8537250140854513050540EFE0CFE8C8
:103A5000854513050480EFE02FE805616FC08FFFF7
:103A6000EFC20FFD37250140D14513050540EFE0BA
:103A7000AFFE42054185EFF0FFDF6FC0AFFDEFC243
:103A80002FFB37250140E14513050540EFE0CFFC52
:103A900042054185EFF01FDE6FC0CFFBEFC24FF94B
:103AA00037250140F14513050540EFE0EFFA4205E7
:103AB0004185EFF03FDC6FC0EFF9EFC26FF7039580
:103AC0008185EFF03FDB6FC0EFF883D7A18503D589
:103AD00061853E9542054181131605014186634B80
:103AE000060085661387F6FF6358D6006393E700E8
:103AF0003E858280014582803A858280B70700201A
:103B000083A7072237177A0013070720B3D7E702E6
:103B100093F7F70F2381F1861307803EB387E702FF
:103B20002390F186828083A6C1851387C18581E2B7
:103B3000B7F700E0D443F99AD4C383D50186814610
:103B40003386A50290CBD4CB944393E6060194C36D
:103B5000944393E6160294C3D443858AF5DE9443D6
:103B6000F99A94C3232007008280EFC26FEC797129
:103B70001306C00281454800EFC08FEE854505451C
:103B8000EFE0FFE93704024013058400EFE0FF880F
:103B9000B72701409387C7443EC2938741863EC4FE
:103BA00085473EC8930700083ECC930700203ECED1
:103BB0008567938707803ED04C008D67130584008E
:103BC0003ED402C602CA02D202D6EFE0DF9B05460F
:103BD000B94513058400EFE09F9E45616FC08FE7F4
:103BE000EFC26FE341118545714502C202C402C6AE
:103BF000EFE0DFE485450545EFE05FE4B714014001
:103C0000FD474C00138504802312F1003704200087
:103C100002C6EFE01FA3130524008545EFE01FAFA8
:103C2000130584008545EFE07FAE0D44E14993071D
:103C3000003C4C00371501402312F1004EC622C44F
:103C4000EFE03FA0930700084C0013850480231287
:103C5000F100EFE01F9F4C00138504C02312810088
:103C6000EFE03F9E930A00404C00138504C02312EE
:103C7000510122C44EC60569EFE0BF9C13090980BB
:103C8000114A4C00138504C02312210152C6EFE0F3
:103C90005F9B4C00371501402312510122C44EC6D0
:103CA000EFE03F9A4C00371501402312210152C624
:103CB000EFE03F99930780032312F1004C00C147C6
:103CC000371501403EC622C4EFE0BF9741016FC0E7
:103CD000CFD7EFC2EFD541118545214502C202C4BD
:103CE00002C6EFE0BFD53714014085678D4423122B
:103CF000F1004C00C147130504C03EC626C4EFE0E6
:103D00005F94130504C08565EFE0DF9F6149896713
:103D10004C00130504C02312F1004AC626C4EFE08C
:103D20005F9291674C00130504C02312F1004AC64C
:103D3000EFE03F91E1774C00130504C02312F1003E
:103D40004AC626C4EFE0FF8F41016FC0AFD03725D0
:103D500001405D71930500481305054082E686E445
:103D60008AE28EE012FE16FC1AFA1EF82AF62EF4EB
:103D700032F236F03AEE3EEC42EA46E872E676E49B
:103D80007AE27EE0EFE00FCF85476316F5001385FA
:103D900001AAEFE02F9B372501409305004813054A
:103DA0000540EFE0EFCE3660A66016618661727264
:103DB000E2725273C2733275A2751276827672679E
:103DC000E2675268C268326EA26E126F826F6161E2
:103DD000730020305D71094582E686E48AE28EE058
:103DE00012FE16FC1AFA1EF82AF62EF432F236F0FB
:103DF0003AEE3EEC42EA46E872E676E47AE27EE0AB
:103E0000EFE0FF828547631BF500EFE0FF8283A7A9
:103E10004186239CF184C183239DF1843660A66092
:103E2000166186617272E2725273C2733275A27544
:103E3000127682767267E2675268C268326EA26E4C
:103E4000126F826F6161730020301D71A2CE3754F2
:103E50000040930550521305048082E686E48AE20E
:103E60008EE012FE16FC1AFA1EF82AF62EF432F232
:103E700036F03AEE3EEC42EA46E872E676E47AE262
:103E80007EE0EFF0AFA61DC113050480EFF0AFA4F4
:103E90009375F50F370500201305852FEFC07FB808
:103EA0009305505213050480EFF08FA876443660D6
:103EB000A660166186617272E2725273C2733275C5
:103EC000A275127682767267E2675268C268326EB5
:103ED000A26E126F826F2561730020301D71A2CE19
:103EE0003754004093055052130504C082E686E41F
:103EF0008AE28EE012FE16FC1AFA1EF82AF62EF45A
:103F000032F236F03AEE3EEC42EA46E872E676E409
:103F10007AE27EE0EFF08F9D15C1130504C0EFF04B
:103F20008F9BB70500009385E5321375F50FDD29EA
:103F300093055052130504C0EFF08F9F764436600E
:103F4000A660166186617272E2725273C273327534
:103F5000A275127682767267E2675268C268326E24
:103F6000A26E126F826F256173002030EFC24FACDA
:103F70004111114502C402C6EFE09F850544930735
:103F8000200228002314F10022C623050100EFE0DF
:103F90009F849307B01128002314F10022C6230543
:103FA0000100EFE05F839307402428002314F10011
:103FB00022C623050100EFE01F829307703328001B
:103FC0002314F10022C623050100EFE0DF80410148
:103FD0006FC04FA8EFC2CFA501118545116502C67C
:103FE00002C802CA02CC231E0100EFE01FA7B707D8
:103FF00004013EC68567938707803EC8B707000265
:104000003744004085073ECA6C00C1471305048051
:104010003ECCEFE05FA8854513050480EFE05FAD7F
:1040200005616FC02FA3EFC2AFA02A84AE8489457B
:104030002285EFE09FAE65DDA6852285EFE03FADEE
:1040400089452285EFE07FAD65DD6FC0AFA0EFC28F
:104050002F9E2A8485452285EFE03FAC65DD2285D1
:10406000EFE05FAB6FC00F9FEFC28F9C3714014032
:10407000AA842E89130504C08565EFE0EFE8CA85A0
:104080002685EFF05FFA2685EFF07FFCAA84856530
:10409000130504C0EFE00FE726856FC0AF9B935771
:1040A00085003D8D93574500A98F13D527003D8D81
:1040B000935715003D8D05898280EFC26F97AA84C2
:1040C000C16537450040FD1513050580EFF0DFF9A8
:1040D0002A84EFF0DFFC09E91315240149812390BC
:1040E000A40005456FC00F970145EDBFEFC2AF9229
:1040F000797185450965B709002002D002D202D442
:1041000002D602C202C42316010002C802CA02CCAF
:10411000231E0100EFE09F9203A7092295671389F0
:1041200007E233572703A167373401409384F7FF31
:104130004C00B7074000130504403EC223150100A0
:104140000583658F2314E100EFE0FF9DC16793872E
:1041500007063ED091473ED20C109307001013057E
:1041600004403ED602D4EFE01FA80C101305044013
:10417000EFE07FB10C1013050440EFE09FBD930703
:1041800000072310F10283A709220C101305044035
:10419000B3D72703231201028583E58FED1723137D
:1041A000F102EFE0BFC783A7092237470F001307CB
:1041B0000724B3D7E7020C081305044002C8231AEA
:1041C0000100D3F707D0B7B7000007A7C757537749
:1041D000F718D30700F0D3F7E718D39707C0231BCE
:1041E000F100B70700203ECC9167231EF100EFE0FD
:1041F000DFCC130504408545EFE0DFD01305044014
:10420000A145EFE07FD313050440A145EFE0FFD3C4
:1042100013050440A145EFE0FFD413050440A14578
:10422000EFE07FD5130504408545EFE01FCF8545BE
:1042300013050440EFE05FCB45616FC00F81EFB223
:104240003FFFB707002083A507229567938707E202
:10425000B3D5F5023735014013050540C205C581C8
:10426000D3F715D053F5A710D31515C0C205C181DA
:10427000EFE01FD26FB01FFEEFB29FFBB707002029
:1042800083A507229567938707E2B3D5F5023735F3
:10429000014013050540C205C581D3F715D053F57C
:1042A000A710D31515C0C205C181EFE0DFCE6FB0F6
:1042B0007FFAEFB2FFF7B707002083A507229567C3
:1042C000938707E2B3D5F502373501401305054062
:1042D000C205C581D3F715D053F5A710D31515C066
:1042E000C205C181EFE09FCB6FB0DFF6EFB25FF4A4
:1042F000411185453705040002C002C202C402C64E
:10430000EFE0AFF5F16737540040938707203EC0D8
:104310008A85B7070C00130504803EC402C2231629
:104320000100EFE01FC805461305048093055052B5
:10433000EFE07FD6854513050480EFE01FD44101EF
:104340006FB05FF1EFB2DFEE411185453705080030
:1043500002C002C202C402C6EFE02FF0F167375478
:104360000040938707203EC08A85B7070C001305DD
:1043700004C03EC402C223160100EFE09FC20546FE
:10438000130504C093055052EFE0FFD08545130597
:1043900004C0EFE09FCE41016FB0DFEBEFB25FE909
:1043A00037540040AA84130404808385040099E1F3
:1043B0006FB05FEAC205C1812285EFE03FD193056E
:1043C00000082285EFE0DFD17DD98504F9BFEFB287
:1043D0003FE637540040AA85130504C0EFE01FCF25
:1043E000130404C0930500082285EFE07FCF7DD938
:1043F0006FB05FE6EFB2DFE34111AA841305000955
:104400002AE682941305B00E8294014411497C007F
:10441000A29703C5070005048294E31A24FF410113
:104420006FB05FE3EFB2DFE09386418183C70600A0
:10443000114641111384D1866391C7049307000983
:104440006311F502034704009307B00E6316F700EB
:1044500023860186238006002300A40041016FB05B
:104460007FDF1307B00EE319E5FE03470400E315F1
:10447000F7FE05472386E186F1BF03C6C186938612
:1044800017001387418193F6F60F01E60D46B30737
:10449000F6402300D70013878186BA972380A700B0
:1044A0009147E39BF6FA08632AC6829532456DB7B9
:1044B000411106C622C426C2D30705E07327200097
:1044C00013D577011375F50F130715001394970093
:1044D0001377E70F258093D4F7011DC3935734005A
:1044E000130505387604B2075205B183C98FFE045F
:1044F000C58F2285BE85B24022449244410182800C
:104500000DE935C422854928A94763C1A7082D476D
:10451000098F930755013357E4003314F4009317C0
:10452000C700130790383305A740B1831375F57F93
:104530005DBF15C83707080093573400D98F370778
:1045400010007D17131694009316D401F98F63534E
:1045500006027D8F9397F401B704F07FD98CC58F45
:104560003685BE8549BF1305F07F8147ADBF014544
:10457000814795BF7D8F9397F401B704F07F458FF6
:10458000D98F3685BE8573601800B5B7130755FF00
:104590003317E400014461B7C167637EF5029307F6
:1045A000F00F1307000263ECA700978700009387C2
:1045B0002730AA9703C507003305A74082802181D1
:1045C000978700009387C72EAA9703C50700614706
:1045D0003305A7408280B7070001636EF500618153
:1045E000978700009387C72CAA9703C50700214728
:1045F0003305A74082804181978700009387472B2E
:10460000AA9703C5070041473305A7408280B3C777
:10461000A5008D8B3307C50081E78D4763EEC7008A
:10462000AA876370E50A83C6050085078505A38F01
:10463000D7FEE3EAE7FE828093763500AA8791CA27
:1046400083C6050085078505A38FD7FE93F637003F
:10465000FDB79376C7FF138606FE63F0C70683A3F4
:10466000050083A2450083AF850003AFC50083AE7C
:10467000050103AE450103A3850183A8C501938508
:10468000450223A0770003A8C5FF23A2570023A457
:10469000F70123A6E70123A8D70123AAC70123AC6A
:1046A000670023AE17019387470223AE07FF75B754
:1046B00090419107910523AEC7FEE3EBD7FEE3E4FB
:1046C000E7F68280797122D44AD052CC56CA5AC8B1
:1046D00006D626D24ECE3A8AAE8A32843689428BAC
:1046E000014763580600370700803344C7001307AB
:1046F000D0022380E70093F4F8FD930760048D4611
:104700006388F4009307500489466393F400050915
:10471000DA879308C100130881004A87D68522866C
:10472000EF10B02693077004AA896396F400137AF9
:104730001A00630A0A0493076004338A2901639705
:10474000F40203C7090093070003631EF700014644
:1047500081465685A285EF40907B11C585473389F8
:10476000274123202B0183270B003E9A01468146D7
:104770005685A285EF40B07911E152C613070003B8
:10478000B24763E24703B2474257B2502254B3875D
:1047900037411CC34E8592540259F249624AD24AAB
:1047A000424B456182809386170036C62380E7001E
:1047B000C1BF2300C500130725009307B00263D6CD
:1047C0000500B305B0409307D002A300F500A5474C
:1047D00063DAB70441119307F100BE882948130337
:1047E0003006B3E605031386F7FF93860603A38F0F
:1047F000D7FEB3C60503634DB30093860603F917CE
:10480000A30FD6FE63E917013305A740410182805B
:10481000B287B685F9B7850783C6F7FF0507A30FEB
:10482000D7FECDB793070003130745009385050313
:104830002301F500A301B5003305A740828019715B
:104840003ACE86DEA2DCA6DA2E84CAD8CED6D2D460
:10485000B689DAD0DECEE2CC3289D6D2E6CAEAC850
:10486000EEC6AA84EF205047832B05005E85EF003B
:10487000D004032B0400724702DC93760B102A8CC1
:10488000034A84011C43F1CA9386470014C39C4326
:10489000081098433AD0D8433AD298473AD4DC47E4
:1048A0003ED6EF60C07328C46CC4832CC404178741
:1048B000000013072710832A8404032D0700832D8B
:1048C000470093971C0085836A86EE865685BE85D1
:1048D0003ECEEF60201241EDF2476A86EE865685A5
:1048E000BE85EF40B0776354A008014681465685E7
:1048F000E685EF40B076635605009307D002A3012A
:10490000F40493077004978A0000938A2A0B63F6D5
:104910004701978A0000938AAA0A137BBBFF8D4741
:10492000232064011CC8014B4E87CA867018A285DB
:104930002685C12EFD5C631E95157D55F650665487
:10494000D6544659B659265A965A065BF64B664CCB
:10495000D64C464DB64D096182809D07E19B9386FA
:10496000870014C39843DC4338C47CC43DBF5686DB
:10497000E6865685E685EF60E00711CD9307700463
:10498000978A0000938A0A04E3F947F9978A00009E
:10499000938A8A0359B75C407D57137DFA0D63955E
:1049A000E70899475CC0544013670B403C18D68514
:1049B0003EC018C09307310302C2D28813084103D6
:1049C00066862685EFF01FD093077004AA8AD25519
:1049D000631BFD00F55763C5F5005C4063D8B7085D
:1049E000791A137AFA0F9307500663E64705FD1507
:1049F0005286130504052EDAEFF0BFDB62578546B9
:104A00002A8BB307A7001CC863C5E6001840058BB6
:104A100019C385071CC883473103E38707F0930751
:104A2000D002A301F40409B713077004E31DEDF6E7
:104A3000BDFB854785BF93076006631BFA025C4098
:104A4000635BB0000CC881E71840058B09CF850770
:104A5000AE971CC809A889E718408546058B19C37D
:104A60009386270014C82CCC014B75B7130A700627
:104A7000E25763C9F5001C400CC8858BEDD79387BE
:104A80001500C1BF05476344B00009470D8FBA97B1
:104A9000C9B71C4013F7074015E314485686CA856A
:104AA00026858299E30B95E91C40898B6396072440
:104AB000F2574844E354F5E83E8549B513075006DC
:104AC000637B471928446C4401468146EF403044DB
:104AD00039E9854617860000130646EFCA85268504
:104AE0008299E30C95E55257E2576345F7001C4065
:104AF000858BDDDBE2865E86CA8526858299FD5739
:104B0000E30DF5E2014A930AA4017D5BE257FD172C
:104B1000E35CFAF885465686CA8526858299E30EB7
:104B200065E1050AE5B7D2576346F0068546178664
:104B300000001306A6E9CA8526858299E30F95DF52
:104B4000D2576257D98F81E71C40858BB1DFE2864F
:104B50005E86CA8526858299FD57E300F5DE014A07
:104B6000130BA401FD5BD257B307F040634BFA006F
:104B7000E2565686CA8526858299FD57E316F5F2D8
:104B80006DBB85465A86CA8526858299E30775DB03
:104B9000050AD1BF3C4C625A63D347013E8A635A2F
:104BA0004001D2865686CA8526858299FD57E3063E
:104BB000F5D8814C130DA401FD5D09A885466A86D0
:104BC000CA8526858299E30AB5D7850C032B84050F
:104BD000D28763530A008147B307FB40E3C0FCFE62
:104BE0005257E257634DF7021C40858B8DEBE2571D
:104BF0005257338AE7406344EB00338A6741635B73
:104C00004001D28633866A01CA8526858299FD577E
:104C1000E305F5D2814A130BA401FD5B15A0E286E2
:104C20005E86CA8526858299FD57E312F5FC31B36D
:104C300085465A86CA8526858299E30075D1850AFC
:104C40005257E257998F528763530A000147998F51
:104C5000E3C0FAFE91BDE25605476344D700858B59
:104C6000B5C785465686CA85268582997D5AE3064C
:104C700045CDE2865E86CA8526858299E30F45CBBF
:104C800028446C4401468146EF4070281DC9E25615
:104C900013861A00CA85FD1626858299E30F45C939
:104CA000DA8613060405F9B585465686CA85268533
:104CB0008299E30475C9050AE257FD17E346FAFE37
:104CC000C5B7014A930AA401FD5BFDB78546568628
:104CD000CA8526858299E31595FD85B18546568658
:104CE000CA8526858299E30A65C5050A5C44725720
:104CF000998FE345FAFE6DBB014A930A94017D5BEF
:104D0000F5B7797156CA9C49BA8A984522D426D2F9
:104D10004ECE52CC06D64AD05AC85EC6AA892E8438
:104D2000B284368A63D3E700BA879CC00347340451
:104D300019C385079CC01C4093F7070281C79C409C
:104D400089079CC00329040013796900631A0900CC
:104D5000130B9401FD5B5C449840998F634CF904FC
:104D60001C408346340493F70702B336D000A5EB0A
:104D700013063404D2854E85829AFD576303F504E9
:104D80001C4011469840998B544481446397C70056
:104D9000B384E64063D3040081441C441848635440
:104DA000F700998FBE94014969047D5B63982405DF
:104DB000014509A885465A86D2854E85829A631E8A
:104DC00075017D55B250225492540259F249624AFB
:104DD000D24A424BB24B456182800509ADBF3307D1
:104DE000D40013060003A301C704034754049387A8
:104DF0001600A2978906A381E7049DBF85462286F7
:104E0000D2854E85829AE30E65FB050945B7797117
:104E100022D426D24AD04ECE06D652CC56CA5AC832
:104E2000B68983C68501930790063289AA842E84A9
:104E300013863504638DF60263E2D7069307800577
:104E40006389F61863EDD700638206229307300466
:104E5000638FF60A930A24042301D404D1A0930794
:104E600030066386F60A93074006E395F6FE1C407B
:104E7000084393F6070893054500CDC61C410CC3B3
:104E800063D807001307D002B307F040A301E4047E
:104E9000978600009386C6B3294775A89307000735
:104EA0006385F61663E5D7029307E006638CF61870
:104EB0009307F006E390F6FA0C401C4313F805083C
:104EC000138547006308080608C39C4395A8930709
:104ED0005007E383F6FE93078007638CF61293076F
:104EE0003007E399F6F61C43D0418145938647008D
:104EF00014C383AA07005685EF20E06301C533057C
:104F0000554148C05C401CC8A301040471A81C435F
:104F1000930A2404938647009C4314C32301F4049A
:104F20008547D5B793F607041C410CC3B1DAC20715
:104F3000C187B9B793F5050408C3C1D983D7070062
:104F40001307F0066388E60E97860000938646A84E
:104F50002947A30104044C400CC463C50500084064
:104F60006D9908C099E3B28A91CDB28AB3F5E70290
:104F7000FD1AB69583C505002380BA00B3D5E702B4
:104F800063F0E70CA147631EF7001C40858B91CBB3
:104F900058401C4863C7E70093070003A38FFAFE3D
:104FA000FD1A3306564110C84E87CA867000A28586
:104FB0002685EFF01FD57D5A631E450B7D55B250F7
:104FC000225492540259F249624AD24A424B4561F4
:104FD0008280A382D504978600009386669F0C404A
:104FE000084313F805081C411105630D080208C3A6
:104FF00013F7150001C793E505020CC04147B1FB4B
:105000000C4093F5F5FD0CC0A9B79C4193E707024E
:105010009CC193078007A302F4049786000093863F
:10502000669C75BF13F8050408C3E30308FCC207B8
:10503000C1837DBF9786000093868699214711BF63
:10504000AE872DB794411C43CC4913F8060813854D
:1050500047006306080008C39C438CC301A808C32B
:1050600093F606049C43F5DA2390B7002328040046
:10507000B28A1DBF14485686CA8526858299E30FD9
:1050800045F31C40898B8DE7B2474844E359F5F25C
:105090003E8535B785465686CA8526858299E30FB3
:1050A00065F1050A5C443247998FE345FAFEE9BF92
:1050B000014A930A94017D5BF5B7AA87850703C768
:1050C000F7FF6DFF3385A7407D158280011122CC4B
:1050D0002A872E843A85A28532C606CEEF20303448
:1050E00032462A88AE8805C651801374F47F930730
:1050F000B006818F635DF000D2073707F03F0148AB
:105100003E974286BA86EF40D0002A88AE88F240A9
:1051100062444285C6850561828035714AC92A8903
:10512000368532D236C006CF22CD26CB4EC7E6DA40
:10513000EAD852C52E8D56C35AC1DEDEE2DCEED669
:1051400082C8EF200039AA8C084181440144EFF065
:10515000DFF68246AA89EAC635461305B00213086F
:10516000D002930800022543B64703C70700636BCC
:10517000E608637F67085DC7814D364A93070003E1
:10518000814A03470A00631CF71283471A0013077A
:1051900080056388E7001306800713070003639602
:1051A000C7103688EE879808D408178600001306C3
:1051B000668AEC004A85EF10F04893797500AA8A58
:1051C0006388090099476397F906050AD2C6814D9D
:1051D000925781C7B64712571CC363890D04B705A0
:1051E0000080A18DFA406A4426854A49DA44BA49CA
:1051F0002A4A9A4A0A4BF65B665CD65C465DB65D07
:105200000D6182806309A70063040703E31617F7A3
:105210008507BEC691BF814D13871700BAC683C7E5
:105220001700A1FF9257EAC6814DCDF7A2855DBF59
:10523000854DDDB7464611CA93055003A808EF20F7
:105240003042C6454A85EF206039FD19914763EE2B
:105250003701177700001307277A8A09BA9983A7BD
:105260000900BA978287E644764493FA8A00E3817C
:105270000AF6B70700805D8CA1BFF6453704F0FF42
:105280007D14B3F785005644E64413043443931564
:10529000440133E4B700D1BF3704F07FF9B7B70555
:1052A000008013C4F5FFFD54C9B7B64793861700B5
:1052B000B6C683C71700E38AE7FE99DB854AB6477F
:1052C000014A814B3EC0014CA5462148A9473645BD
:1052D000034B050013070BFD1376F70F63FDC604A0
:1052E00083A50C004E86EF30A0123DC1DA87E28C18
:1052F0008146014B0145130750066387E7001307FA
:1053000050048149639CE71663960C00B3E756018D
:1053100091DB814C364D1307B00293071D00BEC6CA
:1053200083471D006385E70E1307D002814863960B
:10533000E70E8548F1A863498801B38BFB02BA9B4D
:105340000505050CAAC661B7330AFA023A9ACDBF21
:10535000364581464E95AAC68347050063000C0872
:10536000014BE28C138707FD25466377E60205456E
:1053700059B7B647850613861700B2C683C717000C
:10538000E389E7FE1387F7FC2146E369E620364709
:10539000368B814C3AC08146938707FD13871600F0
:1053A00095C73A9B338596016687A14841432946B4
:1053B0006319A70213881C00B30CD800A14663CF61
:1053C000E6022947B38BEB020147BE9BB6479386A3
:1053D0001700B6C683C71700BA8669B7130700035C
:1053E00045B79305170063C6E800B38BCB022E8741
:1053F000C1B7E34EB3FE330ACA02D5BFC146014767
:10540000E3C696FDA946330ADA023E9AC1B781483F
:1054100093072D00BEC683472D00138707FD254641
:105420006367E60C130700036386E70A1387F7FC3C
:10543000214681496364E6043643138707FD254E00
:10544000A94EB64713861700B2C683C717009385C7
:1054500007FD93F5F50F6376BE0895693306664040
:105460009389F9E12143CE856346C300BA8963D3AA
:10547000E500AE8963840800B309304163980C0CE1
:10548000B3E6DA00E39606D4E31E05D81307E0047A
:10549000638AE7066340F70613079004E394E7D8AE
:1054A000977500009385055AE800EF103069E30B0B
:1054B00005D6B6479775000093850559E800FD1796
:1054C000BEC6EF10B06701E5B6478507BEC6370414
:1054D000F07FFDB9B64713861700B2C683C7170021
:1054E000A1B73307D703BA97138707FD99BFEAC659
:1054F000814969B713079006E384E7FA1307E006CA
:10550000E392E7D29775000093858554E800EF1089
:10551000F062E30905D0B64703C70700930780028E
:105520006313F702B008977500009385E553E80010
:10553000EF10D06395476318F500F6453704F07F08
:10554000E6444D8C71B13704F8FF59B1B38A694113
:1055500063130C00668CC147668D63D39701414D80
:105560005E85EF50606FA547AA842E8463DC9703A5
:1055700093077DFF13973700977700009387075BAA
:10558000BA979043D443EF40C0382A845285AE8402
:10559000EF50806C2A86AE862285A685EF20B077F4
:1055A000AA842E84BD4763CD9709E3830AC263545E
:1055B00050075947634357038E0A97770000938734
:1055C000E756BE9A03A50A0083A54A002686A2864E
:1055D000EF402034AA842E84E5BE1307500233071F
:1055E0009741634F5705B38C974197790000938992
:1055F000E95393973C00CE978843CC432686A286F6
:10560000EF40203133889A410E084E980326080057
:105610008326480075BFA95763C4FA02B3093B410A
:10562000139B39009779000093894950DA9903A6B2
:10563000090083A649002685A285EF30B00E59BF28
:10564000338DAC41569D6356A0119377FD0099CFE1
:10565000177700001307874D8E07BA978843CC430E
:105660002686A286EF40E02AAA842E84137D0DFFB1
:1056700063070D0A9307401363D4A705014B8149C3
:10568000814C814B930720022320F9003704F07FDF
:105690008144E38F0CB2C6454A85EF103074DE8535
:1056A0004A85EF10B073CE854A85EF103073E685DA
:1056B0004A85EF10B072DA854A85EF10307209BE64
:1056C000135D4D402685A2858147014A85481773A1
:1056D00000001303234363C6A80599C3AA842E843C
:1056E000177700001307074293173A00BA978843C9
:1056F000CC433707B0FC22972686BA86EF4060215C
:105700003704F07FB377B4003707A07CAA84E3673F
:10571000F7F63707907C637AF7027D14FD54014A4F
:10572000DDA813771D0011CF13173A001A97104305
:105730005443EF40001E854785481773000013034C
:10574000633C050A135D1D4079B7370450032E945E
:10575000F9B7E3060DFC330DA0419377FD0099CF17
:10576000177700001307873C8E07BA979043D443FE
:105770002685A285EF30007BAA842E84135D4D40E0
:10578000E30F0DF8FD4763DDA701014B8149814C13
:10579000814B93072002814401442320F900D5BDA9
:1057A000137A0D0163040A00130AA0062685A28558
:1057B000977700009387072D014793761D0081CAD4
:1057C0009043D4433EC6EF40C014B2470547135D33
:1057D0001D40A107E3130DFE19C3AA842E8463059F
:1057E0000A029357440113F7F77F9307B006998F86
:1057F000635CF0007D476354F72213074003814444
:105800006359F72037047003014681462685A28537
:10581000EF30F06F3DD98245E6865E8762864A8525
:10582000EF109069AA8CE30B05E493D7FA41B30912
:105830003B41B3F7F9003ECE56CC63D30A0002CC0D
:105840009387CC003ED6B7071000FD17014B814966
:105850003ED483A54C004A85EF10904FAA8BE303FA
:1058600005E203A60C01B255310509060A06EFE070
:105870001FDAB808D4082286A6854A8526C022C623
:10588000EF208049AAC8E30F05DE85454A85EF1061
:105890001078AA89E30805DED64763C70718724760
:1058A000624C338DE7006647B38747419306600338
:1058B000BA97998EFD17130720C063D7E7181D8F7D
:1058C0007D46998E6347E6168547B397E7003ED03D
:1058D00002C8369C3307DD00529CEA876353A70158
:1058E000BA876353FC00E2876357F0001D8F330CC7
:1058F000FC40330DFD40F247635AF002CE853E86F0
:105900004A853ADAEF20A006AA89E30D05D6464675
:10591000AA854A85EF1070712AD8E30505D6C645D9
:105920004A85EF10B04BC2575257BEC86340E012D1
:10593000635A50016246DE854A85EF204003AA8BF8
:10594000E30205D4635A8001DE8562864A85EF2032
:10595000E00DAA8BE30805D2635AA001CE856A86C2
:105960004A85EF20A00CAA89E30E05D0C6455E86C5
:105970004A85EF20A01B2A8BE30605D0032CC50027
:10598000CE8523260500EF204017635A050C336CA3
:105990009C0063120C129317C400639E0710B70794
:1059A000F07FE18F3707B0066377F71083274B014D
:1059B00091E703270B01854763DFE70EDA8505468C
:1059C0004A85EF20A006CE852A8BEF200013635472
:1059D000A00E630B0A10B707F07FE18F3707B00600
:1059E0006344F71037077003E355F7DA0147B70749
:1059F00050392685A2853A86BE86EF3090712E8476
:105A0000C98DAA84E39905C8930720022320F900D1
:105A100059B181177D57B317F7007D8CF5B37D57CA
:105A2000B317F700FD8CCDB36247724D330CF740CE
:105A30009DBD130720BEB307F7400547B317F70016
:105A40003EC885473ED071B502C8E5BFC6453A8617
:105A50004A85EF10B07DAAC8E31C05EC25B161E5CD
:105A6000370710007D17B377E40063090C046399CE
:105A7000E7047D5763000A02B707F07FE18FB7069E
:105A8000A00663E9F600D1839306B006B387F6401B
:105A90003317F7006396E402B707F07FFD1763152D
:105AA000F400FD57E380F4BEB705F07FE18D3704C5
:105AB00010002E948144E31B0AF2F1BEC58F91DBE6
:105AC000C2479DCFE18FE5DB52862685A285630C18
:105AD0000C02EFF0AFDF2A86AE860245B245EF201A
